:0300000002015E9C
:0C015E00787FE4F6D8FD7581100201A541
:0A000E003F065B4F666D7D077F6FB4
:04000300020C0000EB
:1002D400758911758C3C758AB0758DFD758BFDD251
:1002E400AFD2A9D2ABC28CD28EE50964094508709D
:1002F40009D28CAF0DAE0C120275E50964024508F3
:1003040070E7F50CF50DE5096402450870DBD2A52C
:100314007F03FE120397C2A57F037E00120397801A
:01032400E5F3
:03000B0002036687
:10036600C0E0758C3C758AB0050BE50B7002050A7A
:100376006414450A7018050DE50D7002050C643C01
:10038600450C7004F50CF50D750A00750B00D0E0F0
:010396003234
:03001B00020325B8
:10032500C0E0C0F0C083C082C0D075D000C000C09E
:1003350001C002C003C004C005C006C007758DFD1D
:10034500758BFD12001ED007D006D005D004D00352
:10035500D002D001D000D0D0D082D083D0F0D0E070
:010365003265
:04027500AB07AA0623
:100279007C007D0A1201EA8E0E8F0FAE02AF037C5D
:10028900007D0A1201EAD2A0C2A1C2A2AE04AF0542
:10029900740E2FF58274003EF583E493F5807F0A8E
:1002A900AE071FEE70FAE4F580C2A0C2A1C2A27423
:1002B9000E250FF5827400350EF583E493F5807FE2
:0A02C9000AAE071FEE70FAE4F5809C
:0102D3002208
:10001E007590FE8590105310F0E51064F0604085E9
:10002E009010E5102482602324C0601724E0600B3A
:10003E0024F0701DE4F508F50980167508007509A1
:10004E0001800E7508007509028006750800750995
:10005E0003E51064F060088590105310F080F2757F
:10006E0090FD8590105310F0E51064F0604185907E
:10007E0010E5102483602424C0601824E0600C2452
:10008E00F0701E7508007509048016750800750954
:10009E0005800E750800750906800675080075093D
:1000AE0007E51064F060088590105310F080F2752B
:1000BE0090FB8590105310F0E51064F06041859030
:1000CE0010E5102485602424C0601824E0600C2400
:1000DE00F0701E7508007509088016750800750900
:1000EE0009800E75080075090A80067508007509E5
:1000FE000BE51064F060088590105310F080F275D7
:10010E0090F78590105310F0E51064F060418590E3
:10011E0010E5102489602424C0601824E0600C24AB
:10012E00F0701E75080075090C80167508007509AB
:10013E000D800E75080075090E800675080075098C
:0F014E000FE51064F060088590105310F080F2F8
:01015D00227F
:10039700D3EF9400EE6480948040147D6E7C00ED72
:0F03A7001D70011CED4C70F7EF1F70E41E80E11C
:0103B6002224
:10016A000202D4E493A3F8E493A34003F68001F2D5
:10017A0008DFF48029E493A3F85407240CC8C33396
:10018A00C4540F4420C8834004F456800146F6DF65
:10019A00E4800B0102040810204080900003E47EF2
:1001AA00019360BCA3FF543F30E509541FFEE4935A
:1001BA00A360010ECF54C025E060A840B8E493A321
:1001CA00FAE493A3F8E493A3C8C582C8CAC583CA4C
:1001DA00F0A3C8C582C8CAC583CADFE9DEE780BE04
:0100070000F8
:1001EA00C2D5EC30E709B2D5E4C39DFDE49CFCEE30
:1001FA0030E715B2D5E4C39FFFE49EFE120220C386
:10020A00E49DFDE49CFC800312022030D507C3E480
:06021A009FFFE49EFE229E
:10022000BC000BBE0029EF8DF084FFADF022E4CCC2
:10023000F875F008EF2FFFEE33FEEC33FCEE9DEC8B
:10024000984005FCEE9DFE0FD5F0E9E4CEFD22EDD1
:10025000F8F5F0EE8420D21CFEADF075F008EF2F1B
:10026000FFED33FD4007985006D5F0F222C398FD0C
:050270000FD5F0EA22A9
:00000001FF
