:1000D800FEFDFBF73F065B4F666D7D077F6F777C04
:1000E800395E797100666D7D077F6F777C395E793F
:0600F80071000000000091
:10009D00F583E493F5A074DC250BF5827400350A25
:0B00AD00F583E493F4F5807F047E00EF
:1000B800D3EF9400EE6480948040147D6E7C00ED54
:0F00C8001D70011CED4C70F7EF1F70E41E80E1FE
:0100D7002206
:10000300E4F508F509E4F50AF50B74D8250BF58238
:100013007400350A12009DE4F580050BE50B7002B0
:10002300050AC39404E50A6480948040DD0509E56C
:100033000970020508C39496E5086480948040C55E
:10004300E4F50CF50DF508F509C3E5099496E50803
:100053006480948050AA750A00750B04E4F50CF5CE
:100063000DC3E50B9408E50A64809480502274D88C
:10007300250DF5827400350C12009DE4F580050B07
:10008300E50B7002050A050DE50D70D5050C80D151
:0A0093000509E50970B3050880AF08
:030000000200FEFD
:0C00FE00787FE4F6D8FD75810D02000348
:00000001FF
