:030000000200CE2D
:0C00CE00787FE4F6D8FD7581150201155D
:1002DB00FEFDFBF73F065B4F666D7D077F6F777CFF
:1002EB00395E7971C3EBB1ED00C1F7CBAEB5C6008A
:1002FB0030313233343536373839003F065B4F6691
:05030B006D7D077F6F0E
:06000300010900010A00E2
:10002600120356758C3C758AB0D2AFD2A9E508B4D6
:1000360001FBC2ACE5126430703CE51364317036E6
:10004600F50FE50F9002EF93F5993099FDC29905EA
:100056000FE50FB404ECD28CE512B43010E513B4FE
:10006600310BAF0DAE0C120271D2AC80EBE4F50C85
:10007600F50DC28CC2ACE51264307044E5136432EF
:10008600703EF50FE50F9002F493F5993099FDC295
:1000960099050FE50FB406EC750B01E512B4302097
:1000A600E513B4321B850B90AF0B7801EF08800186
:1000B60023D8FDF50B7FF47E01120336D2AC80DB2C
:0800C600D2ACE4F5080200339E
:03002300020310C5
:10031000C0E0C0D075D000C000C29874112510F89C
:10032000A6990510E510B40303751000750801D0F7
:0603300000D0D0D0E03245
:03000B0002015A95
:10015A00C0E0C0F0C083C082C0D075D000C000C06B
:10016A0004C005C006C007758C3C758AB00509E550
:10017A000964147052050DE50D7002050CAE0CFFF2
:10018A007C007D0A1201E674FB2FF58274023EF5AB
:10019A0083E493F5993099FDC299AE0CAF0D7C00BA
:1001AA007D0A1201E674FB2DF58274023CF583E4A4
:1001BA0093F5993099FDC299E50D643C450C70049C
:1001CA00F50CF50D750900D007D006D005D004D07E
:0C01DA0000D0D0D082D083D0F0D0E03232
:04027100AB07AA0627
:100275007C007D0A1201E68E148F15AE02AF037C59
:10028500007D0A1201E69002DBE493F5A074DF25F8
:1002950015F58274023514F583E493F4F5807FF443
:1002A5007E01EF1FAA0670011E4A70F6E4F58090E4
:1002B50002DC93F5A074DF2DF58274023CF583E42E
:1002C50093F4F5807E017FF4EF1FAC0670011E4CA0
:0502D50070F6E4F58065
:0102DA002201
:10035600758921758DFD758BFDD28ED29CC29FD27B
:060366009ED2AFD2AC22D2
:10033600D3EF9400EE6480948040147D6E7C00EDD3
:0F0346001D70011CED4C70F7EF1F70E41E80E17D
:010355002285
:1000DA00020026E493A3F8E493A34003F68001F216
:1000EA0008DFF48029E493A3F85407240CC8C33327
:1000FA00C4540F4420C8834004F456800146F6DFF6
:10010A00E4800B0102040810204080900003E47E82
:10011A00019360BCA3FF543F30E509541FFEE493EA
:10012A00A360010ECF54C025E060A840B8E493A3B1
:10013A00FAE493A3F8E493A3C8C582C8CAC583CADC
:10014A00F0A3C8C582C8CAC583CADFE9DEE780BE94
:0100090000F6
:1001E600C2D5EC30E709B2D5E4C39DFDE49CFCEE34
:1001F60030E715B2D5E4C39FFFE49EFE12021CC38E
:10020600E49DFDE49CFC800312021C30D507C3E488
:060216009FFFE49EFE22A2
:10021C00BC000BBE0029EF8DF084FFADF022E4CCC6
:10022C00F875F008EF2FFFEE33FEEC33FCEE9DEC8F
:10023C00984005FCEE9DFE0FD5F0E9E4CEFD22EDD5
:10024C00F8F5F0EE8420D21CFEADF075F008EF2F1F
:10025C00FFED33FD4007985006D5F0F222C398FD10
:05026C000FD5F0EA22AD
:00000001FF
