:030000000201E119
:0C01E100787FE4F6D8FD7581130200035E
:0A01F8003F065B4F666D7D077F6FC9
:100003001201EDE51364324512700DF512F5137FFD
:10001300941201648E108F110513E51370020512FB
:10002300AE10AF117C277D1012010F7E037FE8CF46
:10003300CDCFCECCCE12010F74F82FF58274013ED2
:10004300F583E493F50CAE10AF117C037DE8120148
:100053000F7E007F64CFCDCFCECCCE12010F74F8CC
:100063002FF58274013EF583E493F50DAE10AF11C5
:100073007C007D6412010F7E007F0ACFCDCFCECCF2
:10008300CE12010F74F82FF58274013EF583E493C9
:08009300F50E12009B020006AD
:1001C500C290E4FEEFC4131313540124FF9292EF7F
:0B01D50025E0FFC290D2900EBE08E9AA
:0101E00022FC
:1001A700E4FFFEC290FDEF25E0FFEE33FED290C2E2
:0D01B70090A293E433FBEB42070DBD0CE971
:0101C4002218
:0B01ED00C290D291D292D290C2912217
:10016400C290C2911201C57F06DFFED2907F147E39
:1001740000120187C2907F147E001201871201A72A
:02018400D29116
:010186002256
:10009B00E4FFEFB40800504D9000AAF82828730233
:1000AB0000C20200C60200CE0200D20200DA020039
:1000BB00DE0200E60200EAC2948002D294C295C22C
:1000CB00968022C2948002D294D295C2968016C298
:1000DB00948002D294C295D296800AC2948002D2A6
:1000EB0094D295D29674082FF8E6F5807D327C0079
:1000FB00ED1DAA0470011C4A70F6E4F5800FEF6445
:03010B0008708FEA
:01010E0022CE
:10018700D3EF9400EE6480948040147D6E7C00ED84
:0F0197001D70011CED4C70F7EF1F70E41E80E12E
:0101A6002236
:10010F00BC000BBE0029EF8DF084FFADF022E4CCD4
:10011F00F875F008EF2FFFEE33FEEC33FCEE9DEC9D
:10012F00984005FCEE9DFE0FD5F0E9E4CEFD22EDE3
:10013F00F8F5F0EE8420D21CFEADF075F008EF2F2D
:10014F00FFED33FD4007985006D5F0F222C398FD1E
:05015F000FD5F0EA22BB
:00000001FF
