:0300000002000EED
:0C000E00787FE4F6D8FD75810D020055E6
:0C012200020C000002080000020A0000AD
:10009A00758901758CFF758AFFD2AFD2A9D28CD32C
:1000AA00E50D9509E50C95084004D2A18002C2A18C
:1000BA00E50D6414450C701D0509E5097002050873
:1000CA00750C00750D01D39414E50894004006756B
:1000DA000A00750B01E50B6401450A70C2E50D645F
:1000EA0014450C70BAE509150970021508750C005B
:1000FA00750D01C3E5099401E508940050A1E4F5E2
:05010A000AF50B809ACC
:03000B0002010FE0
:10010F00C0E0758CFF758AFF050DE50D7002050CBB
:03011F00D0E032FB
:10001A0002009AE493A3F8E493A34003F68001F262
:10002A0008DFF48029E493A3F85407240CC8C333E7
:10003A00C4540F4420C8834004F456800146F6DFB6
:10004A00E4800B0102040810204080900122E47E23
:10005A00019360BCA3FF543F30E509541FFEE493AB
:10006A00A360010ECF54C025E060A840B8E493A372
:10007A00FAE493A3F8E493A3C8C582C8CAC583CA9D
:10008A00F0A3C8C582C8CAC583CADFE9DEE780BE55
:01012E0000D0
:00000001FF
